{
  "_format": "hh-sol-artifact-1",
  "contractName": "BlockchainReviews",
  "sourceName": "contracts/blockchainreviews.sol",
  "abi": [
    {
      "anonymous": false,
      "inputs": [
        {
          "indexed": false,
          "internalType": "string",
          "name": "rt",
          "type": "string"
        },
        {
          "indexed": false,
          "internalType": "string",
          "name": "rv",
          "type": "string"
        }
      ],
      "name": "ReviewSubmitted",
      "type": "event"
    },
    {
      "inputs": [],
      "name": "getReviews",
      "outputs": [
        {
          "components": [
            {
              "internalType": "string",
              "name": "rating",
              "type": "string"
            },
            {
              "internalType": "string",
              "name": "review",
              "type": "string"
            }
          ],
          "internalType": "struct BlockchainReviews.Review[]",
          "name": "",
          "type": "tuple[]"
        }
      ],
      "stateMutability": "view",
      "type": "function"
    },
    {
      "inputs": [
        {
          "internalType": "string",
          "name": "_rating",
          "type": "string"
        },
        {
          "internalType": "string",
          "name": "_review",
          "type": "string"
        }
      ],
      "name": "submitReviews",
      "outputs": [],
      "stateMutability": "nonpayable",
      "type": "function"
    }
  ],
  "bytecode": "0x608060405234801561001057600080fd5b506107c6806100206000396000f3fe608060405234801561001057600080fd5b50600436106100365760003560e01c806318b3ef291461003b5780631b1e132414610057575b600080fd5b610055600480360381019061005091906103bc565b610075565b005b61005f61012e565b60405161006c9190610567565b60405180910390f35b6000604051806040016040528084815260200183815250908060018154018082558091505060019003906000526020600020906002020160009091909190915060008201518160000190805190602001906100d19291906102b1565b5060208201518160010190805190602001906100ee9291906102b1565b5050507f730f503b25cf9acc49981c3aaa19f9b6c37ec79d0a2faafd1832ae2f15017df58282604051610122929190610589565b60405180910390a15050565b60606000805480602002602001604051908101604052809291908181526020016000905b828210156102a85783829060005260206000209060020201604051806040016040529081600082018054610185906106be565b80601f01602080910402602001604051908101604052809291908181526020018280546101b1906106be565b80156101fe5780601f106101d3576101008083540402835291602001916101fe565b820191906000526020600020905b8154815290600101906020018083116101e157829003601f168201915b50505050508152602001600182018054610217906106be565b80601f0160208091040260200160405190810160405280929190818152602001828054610243906106be565b80156102905780601f1061026557610100808354040283529160200191610290565b820191906000526020600020905b81548152906001019060200180831161027357829003601f168201915b50505050508152505081526020019060010190610152565b50505050905090565b8280546102bd906106be565b90600052602060002090601f0160209004810192826102df5760008555610326565b82601f106102f857805160ff1916838001178555610326565b82800160010185558215610326579182015b8281111561032557825182559160200191906001019061030a565b5b5090506103339190610337565b5090565b5b80821115610350576000816000905550600101610338565b5090565b6000610367610362846105e5565b6105c0565b90508281526020810184848401111561037f57600080fd5b61038a84828561067c565b509392505050565b600082601f8301126103a357600080fd5b81356103b3848260208601610354565b91505092915050565b600080604083850312156103cf57600080fd5b600083013567ffffffffffffffff8111156103e957600080fd5b6103f585828601610392565b925050602083013567ffffffffffffffff81111561041257600080fd5b61041e85828601610392565b9150509250929050565b60006104348383610523565b905092915050565b600061044782610626565b6104518185610649565b93508360208202850161046385610616565b8060005b8581101561049f57848403895281516104808582610428565b945061048b8361063c565b925060208a01995050600181019050610467565b50829750879550505050505092915050565b60006104bc82610631565b6104c6818561065a565b93506104d681856020860161068b565b6104df8161077f565b840191505092915050565b60006104f582610631565b6104ff818561066b565b935061050f81856020860161068b565b6105188161077f565b840191505092915050565b6000604083016000830151848203600086015261054082826104b1565b9150506020830151848203602086015261055a82826104b1565b9150508091505092915050565b60006020820190508181036000830152610581818461043c565b905092915050565b600060408201905081810360008301526105a381856104ea565b905081810360208301526105b781846104ea565b90509392505050565b60006105ca6105db565b90506105d682826106f0565b919050565b6000604051905090565b600067ffffffffffffffff821115610600576105ff610750565b5b6106098261077f565b9050602081019050919050565b6000819050602082019050919050565b600081519050919050565b600081519050919050565b6000602082019050919050565b600082825260208201905092915050565b600082825260208201905092915050565b600082825260208201905092915050565b82818337600083830152505050565b60005b838110156106a957808201518184015260208101905061068e565b838111156106b8576000848401525b50505050565b600060028204905060018216806106d657607f821691505b602082108114156106ea576106e9610721565b5b50919050565b6106f98261077f565b810181811067ffffffffffffffff8211171561071857610717610750565b5b80604052505050565b7f4e487b7100000000000000000000000000000000000000000000000000000000600052602260045260246000fd5b7f4e487b7100000000000000000000000000000000000000000000000000000000600052604160045260246000fd5b6000601f19601f830116905091905056fea26469706673582212203a04eb24c504edbdddea673cbe18f76f8678b195eb7c4e2a135a64e2768de8a364736f6c63430008040033",
  "linkReferences": {},
  "deployedLinkReferences": {}
}